{
  "_format": "hh-sol-artifact-1",
  "contractName": "Assessment",
  "sourceName": "contracts/Assessment.sol",
  "abi": [
    {
      "inputs": [
        {
          "internalType": "uint256",
          "name": "initBalance",
          "type": "uint256"
        }
      ],
      "stateMutability": "payable",
      "type": "constructor"
    },
    {
      "inputs": [
        {
          "internalType": "uint256",
          "name": "balance",
          "type": "uint256"
        },
        {
          "internalType": "uint256",
          "name": "withdrawAmount",
          "type": "uint256"
        }
      ],
      "name": "InsufficientBalance",
      "type": "error"
    },
    {
      "anonymous": false,
      "inputs": [
        {
          "indexed": false,
          "internalType": "uint256",
          "name": "amount",
          "type": "uint256"
        }
      ],
      "name": "Deposit",
      "type": "event"
    },
    {
      "anonymous": false,
      "inputs": [
        {
          "indexed": false,
          "internalType": "uint256",
          "name": "amount",
          "type": "uint256"
        }
      ],
      "name": "Withdraw",
      "type": "event"
    },
    {
      "inputs": [],
      "name": "balance",
      "outputs": [
        {
          "internalType": "uint256",
          "name": "",
          "type": "uint256"
        }
      ],
      "stateMutability": "view",
      "type": "function"
    },
    {
      "inputs": [
        {
          "internalType": "uint256",
          "name": "_amount",
          "type": "uint256"
        }
      ],
      "name": "deposit",
      "outputs": [],
      "stateMutability": "payable",
      "type": "function"
    },
    {
      "inputs": [
        {
          "internalType": "uint256",
          "name": "",
          "type": "uint256"
        }
      ],
      "name": "eventHistory",
      "outputs": [
        {
          "internalType": "address",
          "name": "sender",
          "type": "address"
        },
        {
          "internalType": "uint256",
          "name": "amount",
          "type": "uint256"
        },
        {
          "internalType": "uint256",
          "name": "timeStamp",
          "type": "uint256"
        }
      ],
      "stateMutability": "view",
      "type": "function"
    },
    {
      "inputs": [],
      "name": "getAllTransactions",
      "outputs": [
        {
          "components": [
            {
              "internalType": "address",
              "name": "sender",
              "type": "address"
            },
            {
              "internalType": "uint256",
              "name": "amount",
              "type": "uint256"
            },
            {
              "internalType": "uint256",
              "name": "timeStamp",
              "type": "uint256"
            }
          ],
          "internalType": "struct Assessment.Transaction[]",
          "name": "",
          "type": "tuple[]"
        }
      ],
      "stateMutability": "view",
      "type": "function"
    },
    {
      "inputs": [],
      "name": "getBalance",
      "outputs": [
        {
          "internalType": "uint256",
          "name": "",
          "type": "uint256"
        }
      ],
      "stateMutability": "view",
      "type": "function"
    },
    {
      "inputs": [],
      "name": "getEventHistoryLength",
      "outputs": [
        {
          "internalType": "uint256",
          "name": "",
          "type": "uint256"
        }
      ],
      "stateMutability": "view",
      "type": "function"
    },
    {
      "inputs": [],
      "name": "getOwner",
      "outputs": [
        {
          "internalType": "string",
          "name": "",
          "type": "string"
        }
      ],
      "stateMutability": "pure",
      "type": "function"
    },
    {
      "inputs": [],
      "name": "getOwnerAddress",
      "outputs": [
        {
          "internalType": "address",
          "name": "",
          "type": "address"
        }
      ],
      "stateMutability": "view",
      "type": "function"
    },
    {
      "inputs": [
        {
          "internalType": "uint256",
          "name": "index",
          "type": "uint256"
        }
      ],
      "name": "getTransaction",
      "outputs": [
        {
          "internalType": "address",
          "name": "",
          "type": "address"
        },
        {
          "internalType": "uint256",
          "name": "",
          "type": "uint256"
        },
        {
          "internalType": "uint256",
          "name": "",
          "type": "uint256"
        }
      ],
      "stateMutability": "view",
      "type": "function"
    },
    {
      "inputs": [],
      "name": "owner",
      "outputs": [
        {
          "internalType": "address payable",
          "name": "",
          "type": "address"
        }
      ],
      "stateMutability": "view",
      "type": "function"
    },
    {
      "inputs": [
        {
          "internalType": "uint256",
          "name": "_withdrawAmount",
          "type": "uint256"
        }
      ],
      "name": "withdraw",
      "outputs": [],
      "stateMutability": "nonpayable",
      "type": "function"
    }
  ],
  "bytecode": "0x6080604052604051610fad380380610fad833981810160405281019061002591906100ad565b336000806101000a81548173ffffffffffffffffffffffffffffffffffffffff021916908373ffffffffffffffffffffffffffffffffffffffff16021790555080600181905550506100da565b600080fd5b6000819050919050565b61008a81610077565b811461009557600080fd5b50565b6000815190506100a781610081565b92915050565b6000602082840312156100c3576100c2610072565b5b60006100d184828501610098565b91505092915050565b610ec4806100e96000396000f3fe60806040526004361061009c5760003560e01c80634803b90d116100645780634803b90d1461018a57806388cb541a146101c9578063893d20e8146101f45780638da5cb5b1461021f578063b69ef8a81461024a578063b6b55f25146102755761009c565b80630c4f65bd146100a157806312065fe0146100cc57806327506f53146100f75780632e1a7d4d1461012257806333ea3dc81461014b575b600080fd5b3480156100ad57600080fd5b506100b6610291565b6040516100c3919061096f565b60405180910390f35b3480156100d857600080fd5b506100e16102ba565b6040516100ee91906109a3565b60405180910390f35b34801561010357600080fd5b5061010c6102c4565b6040516101199190610acd565b60405180910390f35b34801561012e57600080fd5b5061014960048036038101906101449190610b20565b61038d565b005b34801561015757600080fd5b50610172600480360381019061016d9190610b20565b610597565b60405161018193929190610b4d565b60405180910390f35b34801561019657600080fd5b506101b160048036038101906101ac9190610b20565b61069b565b6040516101c093929190610b4d565b60405180910390f35b3480156101d557600080fd5b506101de6106f5565b6040516101eb91906109a3565b60405180910390f35b34801561020057600080fd5b50610209610702565b6040516102169190610c14565b60405180910390f35b34801561022b57600080fd5b50610234610745565b6040516102419190610c57565b60405180910390f35b34801561025657600080fd5b5061025f610769565b60405161026c91906109a3565b60405180910390f35b61028f600480360381019061028a9190610b20565b61076f565b005b60008060009054906101000a900473ffffffffffffffffffffffffffffffffffffffff16905090565b6000600154905090565b60606002805480602002602001604051908101604052809291908181526020016000905b8282101561038457838290600052602060002090600302016040518060600160405290816000820160009054906101000a900473ffffffffffffffffffffffffffffffffffffffff1673ffffffffffffffffffffffffffffffffffffffff1673ffffffffffffffffffffffffffffffffffffffff16815260200160018201548152602001600282015481525050815260200190600101906102e8565b50505050905090565b60008054906101000a900473ffffffffffffffffffffffffffffffffffffffff1673ffffffffffffffffffffffffffffffffffffffff163373ffffffffffffffffffffffffffffffffffffffff161461041b576040517f08c379a000000000000000000000000000000000000000000000000000000000815260040161041290610ce4565b60405180910390fd5b6000600154905081600154101561046d57600154826040517fcf479181000000000000000000000000000000000000000000000000000000008152600401610464929190610d04565b60405180910390fd5b816001600082825461047f9190610d5c565b9250508190555081816104929190610d5c565b600154146104a3576104a2610d90565b5b600260405180606001604052803373ffffffffffffffffffffffffffffffffffffffff16815260200184815260200142815250908060018154018082558091505060019003906000526020600020906003020160009091909190915060008201518160000160006101000a81548173ffffffffffffffffffffffffffffffffffffffff021916908373ffffffffffffffffffffffffffffffffffffffff160217905550602082015181600101556040820151816002015550507f5b6b431d4476a211bb7d41c20d1aab9ae2321deee0d20be3d9fc9b1093fa6e3d8260405161058b91906109a3565b60405180910390a15050565b600080600060028054905084106105e3576040517f08c379a00000000000000000000000000000000000000000000000000000000081526004016105da90610e0b565b60405180910390fd5b6000600285815481106105f9576105f8610e2b565b5b90600052602060002090600302016040518060600160405290816000820160009054906101000a900473ffffffffffffffffffffffffffffffffffffffff1673ffffffffffffffffffffffffffffffffffffffff1673ffffffffffffffffffffffffffffffffffffffff168152602001600182015481526020016002820154815250509050806000015181602001518260400151935093509350509193909250565b600281815481106106ab57600080fd5b90600052602060002090600302016000915090508060000160009054906101000a900473ffffffffffffffffffffffffffffffffffffffff16908060010154908060020154905083565b6000600280549050905090565b606060006040518060400160405280600f81526020017f4e616d616e204e616776616e736869000000000000000000000000000000000081525090508091505090565b60008054906101000a900473ffffffffffffffffffffffffffffffffffffffff1681565b60015481565b6000600154905060008054906101000a900473ffffffffffffffffffffffffffffffffffffffff1673ffffffffffffffffffffffffffffffffffffffff163373ffffffffffffffffffffffffffffffffffffffff1614610804576040517f08c379a00000000000000000000000000000000000000000000000000000000081526004016107fb90610ce4565b60405180910390fd5b81600160008282546108169190610e5a565b9250508190555081816108299190610e5a565b6001541461083a57610839610d90565b5b600260405180606001604052803373ffffffffffffffffffffffffffffffffffffffff16815260200184815260200142815250908060018154018082558091505060019003906000526020600020906003020160009091909190915060008201518160000160006101000a81548173ffffffffffffffffffffffffffffffffffffffff021916908373ffffffffffffffffffffffffffffffffffffffff160217905550602082015181600101556040820151816002015550507f4d6ce1e535dbade1c23defba91e23b8f791ce5edc0cc320257a2b364e4e384268260405161092291906109a3565b60405180910390a15050565b600073ffffffffffffffffffffffffffffffffffffffff82169050919050565b60006109598261092e565b9050919050565b6109698161094e565b82525050565b60006020820190506109846000830184610960565b92915050565b6000819050919050565b61099d8161098a565b82525050565b60006020820190506109b86000830184610994565b92915050565b600081519050919050565b600082825260208201905092915050565b6000819050602082019050919050565b6109f38161094e565b82525050565b610a028161098a565b82525050565b606082016000820151610a1e60008501826109ea565b506020820151610a3160208501826109f9565b506040820151610a4460408501826109f9565b50505050565b6000610a568383610a08565b60608301905092915050565b6000602082019050919050565b6000610a7a826109be565b610a8481856109c9565b9350610a8f836109da565b8060005b83811015610ac0578151610aa78882610a4a565b9750610ab283610a62565b925050600181019050610a93565b5085935050505092915050565b60006020820190508181036000830152610ae78184610a6f565b905092915050565b600080fd5b610afd8161098a565b8114610b0857600080fd5b50565b600081359050610b1a81610af4565b92915050565b600060208284031215610b3657610b35610aef565b5b6000610b4484828501610b0b565b91505092915050565b6000606082019050610b626000830186610960565b610b6f6020830185610994565b610b7c6040830184610994565b949350505050565b600081519050919050565b600082825260208201905092915050565b60005b83811015610bbe578082015181840152602081019050610ba3565b60008484015250505050565b6000601f19601f8301169050919050565b6000610be682610b84565b610bf08185610b8f565b9350610c00818560208601610ba0565b610c0981610bca565b840191505092915050565b60006020820190508181036000830152610c2e8184610bdb565b905092915050565b6000610c418261092e565b9050919050565b610c5181610c36565b82525050565b6000602082019050610c6c6000830184610c48565b92915050565b7f596f7520617265206e6f7420746865206f776e6572206f66207468697320616360008201527f636f756e74000000000000000000000000000000000000000000000000000000602082015250565b6000610cce602583610b8f565b9150610cd982610c72565b604082019050919050565b60006020820190508181036000830152610cfd81610cc1565b9050919050565b6000604082019050610d196000830185610994565b610d266020830184610994565b9392505050565b7f4e487b7100000000000000000000000000000000000000000000000000000000600052601160045260246000fd5b6000610d678261098a565b9150610d728361098a565b9250828203905081811115610d8a57610d89610d2d565b5b92915050565b7f4e487b7100000000000000000000000000000000000000000000000000000000600052600160045260246000fd5b7f496e76616c696420696e64657800000000000000000000000000000000000000600082015250565b6000610df5600d83610b8f565b9150610e0082610dbf565b602082019050919050565b60006020820190508181036000830152610e2481610de8565b9050919050565b7f4e487b7100000000000000000000000000000000000000000000000000000000600052603260045260246000fd5b6000610e658261098a565b9150610e708361098a565b9250828201905080821115610e8857610e87610d2d565b5b9291505056fea2646970667358221220f29c5f08295609fdc624a0a799f654374509c6ea5b78b5ba04a8ccf8be863c7564736f6c63430008110033",
  "linkReferences": {},
  "deployedLinkReferences": {}
}